:020000020000FC
:040000000C942F1617
:040038000C944500DF
:04002C000C94FE0032
:100068002A2A2A2056657273696F6E20312E302035
:100078002D2032303235204D6172203137202A2A26
:100088002A1A0F931F932F937FB61091320312FFF2
:1000980014C0009122030A950093220371F40AE028
:1000A80000932203009112030A950093120329F486
:1000B800E89410F912F9109332031091320316FFE5
:1000C80014C0009123030A950093230371F40AE0F6
:1000D80000932303009113030A950093130329F453
:1000E800E89414F916F9109332031091330312FFB0
:1000F80014C0009124030A950093240371F40AE0C4
:1001080000932403009114030A950093140329F41F
:10011800E89410F912F9109333031091330316FF82
:1001280014C0009125030A950093250371F40AE091
:1001380000932503009115030A950093150329F4EC
:10014800E89414F916F9109333038061009153036E
:10015800199B00950F73000F000F19B11370012B35
:100168000BB900915303199B07C02D9A07FF2D98CF
:100178002C9A06FF2C9806C02D9807FF2D9A2C98CC
:1001880006FF2C9A26B12F7310915703209357031B
:10019800122710935C031095122310935D0310919E
:1001A800510300915C03102300915D03102B009113
:1001B800510300935D0310935103122F1095009182
:1001C8005C03102300915903012B00935903122F4C
:1001D80000915C03102300915803012B10935803DE
:1001E80000915A03102710935A037FBE2F911F9135
:1001F8000F9118950F931F937FB6716088608A944A
:1002080021F402E0802E11E081279A9429F406E077
:10021800902E726012E08127AA9429F402E1A02EA0
:10022800746014E08127BA9419F408E2B02E806251
:10023800109111031A951093110321F480641AE0A8
:10024800109311031091340312FF14C00091260378
:100258000A950093260371F40AE00093260300919F
:1002680016030A950093160329F4E89410F912F975
:10027800109334031091340316FF14C00091270320
:100288000A950093270371F40AE00093270300916D
:1002980017030A950093170329F4E89414F916F93B
:1002A800109334031091350312FF14C000912803F2
:1002B8000A950093280371F40AE00093280300913B
:1002C80018030A950093180329F4E89410F912F911
:1002D800109335031091350316FF14C000912903BC
:1002E8000A950093290371F40AE000932903009109
:1002F80019030A950093190329F4E89414F916F9D7
:10030800109335031091360312FF14C000912A038D
:100318000A9500932A0371F40AE000932A030091D6
:100328001A030A9500931A0329F4E89410F912F9AC
:10033800109336031091360316FF14C000912B0357
:100348000A9500932B0371F40AE000932B030091A4
:100358001B030A9500931B0329F4E89414F916F972
:10036800109336031091370312FF14C000912C0329
:100378000A9500932C0371F40AE000932C03009172
:100388001C030A9500931C0329F4E89410F912F948
:10039800109337031091370316FF14C000912D03F3
:1003A8000A9500932D0371F40AE000932D03009140
:1003B8001D030A9500931D0329F4E89414F916F90E
:1003C8001093370371FF48C01091380312FF14C00F
:1003D80000912E030A9500932E0371F404E600930E
:1003E8002E0300911E030A9500931E0329F4E89436
:1003F80010F912F9109338031091380316FF14C03E
:1004080000912F030A9500932F0371F404E60093DB
:100418002F0300911F030A9500931F0329F4E89402
:1004280014F916F9109338031091390312FF14C008
:10043800009130030A950093300371F404E60093A9
:100448003003009120030A950093200329F4E894CF
:1004580010F912F91093390385FF18C01091390368
:1004680016FF14C0009131030A950093310371F40B
:1004780006E900933103009121030A9500932103B3
:1004880029F4E89414F916F910933903787F8F7DCD
:100498007FBE1F910F9118950E9425180E942D1854
:1004A80077278827289A299A249A259A0FE308B942
:1004B8000CEF0AB905E005BD02E004BD00E407BD84
:1004C80000916E00026000936E000CE000938100C2
:1004D80008E11AE6009389001093880000916F00E4
:1004E800026000936F0002E0802E06E0902E7D7F70
:1004F80002E1A02E7B7F08E2B02E8F7D0895F8944C
:1005080000E00093C50003E30093C40006E00093F5
:10051800C20008E10093C1007894089501E0402EDC
:1005280000E0502E002700934203009343030093FA
:100538004B03089544524F500017A6020000FBFFDA
:100548006694089544555017B5020000FCFF669460
:1005580020F4661C0894661C0895661C8894661C22
:100568000895324455500017C3020000FBFF062DC2
:1005780006950695062D661C0695661C08954F522D
:100588000017D0020000FCFF062D06950629669488
:1005980066940695661C0895414E4417DD020000D6
:1005A800FCFF062D06950621669466940695661C42
:1005B80008952117E9020000FDFF669418F4889455
:1005C800661C08950894661C089521210017F102FD
:1005D8000000FCFF0F6F6026089553574150001725
:1005E800FF020000FBFF062D669466940695661CC4
:1005F8000695661C0895584F52170C030000FCFF1F
:10060800062D06950625669466940695661C08953B
:1006180050412E1714030000FCFF60905103089509
:1006280050552E171C030000FCFF609055030895D9
:1006380050562E1724030000FCFF609056030895BF
:1006480050592E172C030000FCFF609053030895A7
:100658002E50411734030000FCFF609251030895A7
:100668002E5055173C030000FCFF60925503089577
:100678002E50561744030000FCFF6092560308955D
:100688002E5059174C030000FCFF60925303089545
:10069800434C4B412E1758030000FBFF80FB089486
:1006A8000EF08894661C0895434C4B422E17640341
:1006B8000000FBFF81FB08940EF08894661C0895E7
:1006C800434C4B432E1770030000FBFF82FB08943A
:1006D8000EF08894661C089541302E177D030000A3
:1006E800FCFF0091510300FB08940EF08894661CEF
:1006F800089541312E178A030000FCFF0091510331
:1007080001FB08940EF08894661C089541322E1758
:1007180097030000FCFF0091510302FB08940EF0C0
:100728008894661C089541332E17A4030000FCFF2B
:100738000091510303FB08940EF08894661C0895F9
:1007480041342E17B1030000FCFF0091510304FB54
:1007580008940EF08894661C089541352E17BE0340
:100768000000FCFF0091510305FB08940EF08894EB
:10077800661C089541362E17CB030000FCFF00913C
:10078800510306FB08940EF08894661C08954137BF
:100798002E17D8030000FCFF0091510307FB0894B3
:1007A8000EF08894661C0895414C302E0017F4030F
:1007B8000000FBFF00916E000E7F00936E00009119
:1007C800580300FB08940EF08894661CE89400F91E
:1007D8000093580300916E00016000936E00089525
:1007E800414C312E001710040000FBFF00916E00F1
:1007F8000E7F00936E000091580301FB08940EF0E1
:100808008894661CE89401F90093580300916E00DF
:10081800016000936E000895414C322E00172C049D
:100828000000FBFF00916E000E7F00936E000091A8
:10083800580302FB08940EF08894661CE89402F9A9
:100848000093580300916E00016000936E000895B4
:10085800414C332E001748040000FBFF00916E0046
:100868000E7F00936E000091580303FB08940EF06E
:100878008894661CE89403F90093580300916E006D
:10088800016000936E000895414C342E00176404F3
:100898000000FBFF00916E000E7F00936E00009138
:1008A800580304FB08940EF08894661CE89404F935
:1008B8000093580300916E00016000936E00089544
:1008C800414C352E001780040000FBFF00916E009C
:1008D8000E7F00936E000091580305FB08940EF0FC
:1008E8008894661CE89405F90093580300916E00FB
:1008F800016000936E000895414C362E00179C0449
:100908000000FBFF00916E000E7F00936E000091C7
:10091800580306FB08940EF08894661CE89406F9C0
:100928000093580300916E00016000936E000895D3
:10093800414C372E0017B8040000FBFF00916E00F1
:100948000E7F00936E000091580307FB08940EF089
:100958008894661CE89407F90093580300916E0088
:10096800016000936E0008954154302E0017D4049E
:100978000000FBFF00916E000E7F00936E00009157
:10098800590300FB08940EF08894661CE89400F95B
:100998000093590300916E00016000936E00089562
:1009A8004154312E0017F0040000FBFF00916E0047
:1009B8000E7F00936E000091590301FB08940EF01E
:1009C8008894661CE89401F90093590300916E001D
:1009D800016000936E0008954154322E00170C05F3
:1009E8000000FBFF00916E000E7F00936E000091E7
:1009F800590302FB08940EF08894661CE89402F9E7
:100A08000093590300916E00016000936E000895F1
:100A18004154332E001728050000FBFF00916E009B
:100A28000E7F00936E000091590303FB08940EF0AB
:100A38008894661CE89403F90093590300916E00AA
:100A4800016000936E0008954154342E0017440548
:100A58000000FBFF00916E000E7F00936E00009176
:100A6800590304FB08940EF08894661CE89404F972
:100A78000093590300916E00016000936E00089581
:100A88004154352E001760050000FBFF00916E00F1
:100A98000E7F00936E000091590305FB08940EF039
:100AA8008894661CE89405F90093590300916E0038
:100AB800016000936E0008954154362E00177C059E
:100AC8000000FBFF00916E000E7F00936E00009106
:100AD800590306FB08940EF08894661CE89406F9FE
:100AE8000093590300916E00016000936E00089511
:100AF8004154372E001798050000FBFF00916E0047
:100B08000E7F00936E000091590307FB08940EF0C6
:100B18008894661CE89407F90093590300916E00C5
:100B2800016000936E0008954144302E0017A60519
:100B38000000FBFF00915A0300FB08940EF0889414
:100B4800661C08954144312E0017B4050000FBFFD0
:100B580000915A0301FB08940EF08894661C0895CE
:100B68004144322E0017C2050000FBFF00915A03D2
:100B780002FB08940EF08894661C08954144332EB5
:100B88000017D0050000FBFF00915A0303FB0894EF
:100B98000EF08894661C08954144342E0017DE0533
:100BA8000000FBFF00915A0304FB08940EF08894A0
:100BB800661C08954144352E0017EC050000FBFF24
:100BC80000915A0305FB08940EF08894661C08955A
:100BD8004144362E0017FA050000FBFF00915A0326
:100BE80006FB08940EF08894661C08954144372E3D
:100BF800001708060000FBFF00915A0307FB089442
:100C08000EF08894661C089555302E1715060000BE
:100C1800FCFF0091550300FB08940EF08894661CB5
:100C2800089555312E1722060000FCFF0091550348
:100C380001FB08940EF08894661C089555322E170F
:100C48002F060000FCFF0091550302FB08940EF0EC
:100C58008894661C089555332E173C060000FCFF47
:100C68000091550303FB08940EF08894661C0895C0
:100C780055342E1749060000FCFF0091550304FB6C
:100C880008940EF08894661C089555352E1756065C
:100C98000000FCFF0091550305FB08940EF08894B2
:100CA800661C089555362E1763060000FCFF009158
:100CB800550306FB08940EF08894661C0895553772
:100CC8002E1770060000FCFF0091550307FB0894DF
:100CD8000EF08894661C08952E5530177F06000084
:100CE800FCFF6694E89408F468940091550300F9B1
:100CF8000093550308952E5531178E060000FCFF0A
:100D08006694E89408F468940091550301F90093F7
:100D1800550308952E5532179D060000FCFF669472
:100D2800E89408F468940091550302F90093550378
:100D380008952E553317AC060000FCFF6694E8941E
:100D480008F468940091550303F900935503089536
:100D58002E553417BB060000FCFF6694E89408F48F
:100D680068940091550304F90093550308952E558E
:100D78003517CA060000FCFF6694E89408F46894E6
:100D88000091550305F90093550308952E5536171C
:100D9800D9060000FCFF6694E89408F46894009172
:100DA800550306F90093550308952E553717E8069D
:100DB8000000FCFF6694E89408F4689400915503D9
:100DC80007F900935503089556302E17F5060000CD
:100DD800FCFF0091560300FB08940EF08894661CF3
:100DE800089556312E1702070000FCFF00915603A4
:100DF80001FB08940EF08894661C089556322E174D
:100E08000F070000FCFF0091560302FB08940EF048
:100E18008894661C089556332E171C070000FCFFA3
:100E28000091560303FB08940EF08894661C0895FD
:100E380056342E1729070000FCFF0091560304FBC7
:100E480008940EF08894661C089556352E173607B8
:100E58000000FCFF0091560305FB08940EF08894EF
:100E6800661C089556362E1743070000FCFF0091B4
:100E7800560306FB08940EF08894661C08955637AE
:100E88002E1750070000FCFF0091560307FB08943B
:100E98000EF08894661C08952E5630175F070000E0
:100EA800FCFF6694E89408F468940091560300F9EE
:100EB8000093560308952E5631176E070000FCFF65
:100EC8006694E89408F468940091560301F9009335
:100ED800560308952E5632177D070000FCFF6694CE
:100EE800E89408F468940091560302F900935603B5
:100EF80008952E5633178C070000FCFF6694E8947B
:100F080008F468940091560303F900935603089572
:100F18002E5634179B070000FCFF6694E89408F4EB
:100F280068940091560304F90093560308952E56C9
:100F38003517AA070000FCFF6694E89408F4689443
:100F48000091560305F90093560308952E56361757
:100F5800B9070000FCFF6694E89408F468940091CF
:100F6800560306F90093560308952E563717C807F7
:100F78000000FCFF6694E89408F468940091560316
:100F880007F90093560308952E593017D707000024
:100F9800FCFF6694E89408F468940091530300F900
:100FA8000093530308952E593117E6070000FCFFFC
:100FB8006694E89408F468940091530301F9009347
:100FC800530308952E593217F5070000FCFF669465
:100FD800E89408F468940091530302F900935303CA
:100FE80008952E59331704080000FCFF6694E8940E
:100FF80008F468940091530303F900935303089588
:101008002E59341713080000FCFF6694E89408F47E
:1010180068940091530304F90093530308952E59DB
:10102800351722080000FCFF6694E89408F46894D9
:101038000091530305F90093530308952E59361769
:1010480031080000FCFF6694E89408F46894009165
:10105800530306F90093530308952E593717400890
:101068000000FCFF6694E89408F468940091530328
:1010780007F900935303089551302E174D080000C7
:10108800FCFF0091600300FB08940EF08894661C36
:10109800089551312E175A080000FCFF0091600393
:1010A80001FB08940EF08894661C089551322E179F
:1010B80067080000FCFF0091600302FB08940EF033
:1010C8008894661C089551332E1774080000FCFF9D
:1010D8000091600303FB08940EF08894661C089541
:1010E80051342E1781080000FCFF0091600304FBB7
:1010F80008940EF08894661C089551352E178E08B2
:101108000000FCFF0091600305FB08940EF0889432
:10111800661C089551362E179B080000FCFF0091AD
:10112800600306FB08940EF08894661C08955137F6
:101138002E17A8080000FCFF0091600307FB089425
:101148000EF08894661C08952E533017B7080000D7
:10115800FCFF6694E89408F4689400915E0300F933
:1011680000935E0308952E533117C6080000FCFF54
:101178006694E89408F4689400915E0301F900937A
:101188005E0308952E533217D5080000FCFF6694BD
:10119800E89408F4689400915E0302F900935E03F2
:1011A80008952E533317E4080000FCFF6694E89472
:1011B80008F4689400915E0303F900935E030895B0
:1011C8002E533417F3080000FCFF6694E89408F4E3
:1011D800689400915E0304F900935E0308952E530A
:1011E800351702090000FCFF6694E89408F4689437
:1011F80000915E0305F900935E0308952E53361798
:1012080011090000FCFF6694E89408F468940091C2
:101218005E0306F900935E0308952E5337172009DD
:101228000000FCFF6694E89408F4689400915E035B
:1012380007F900935E0308952E5230172F09000016
:10124800FCFF6694E89408F4689400915F0300F941
:1012580000935F0308952E5231173E090000FCFFEA
:101268006694E89408F4689400915F0301F9009388
:101278005F0308952E5232174D090000FCFF669453
:10128800E89408F4689400915F0302F900935F03FF
:1012980008952E5233175C090000FCFF6694E89409
:1012A80008F4689400915F0303F900935F030895BD
:1012B8002E5234176B090000FCFF6694E89408F47A
:1012C800689400915F0304F900935F0308952E5218
:1012D80035177A090000FCFF6694E89408F46894CE
:1012E80000915F0305F900935F0308952E523617A6
:1012F80089090000FCFF6694E89408F4689400915A
:101308005F0306F900935F0308952E523717980973
:101318000000FCFF6694E89408F4689400915F0369
:1013280007F900935F03089551382E17A5090000A7
:10133800FCFF0091630300FB08940EF08894661C80
:10134800089551392E17B2090000FCFF009163037C
:1013580001FB08940EF08894661C089551412E17DD
:10136800BF090000FCFF0091630302FB08940EF024
:101378008894661C089551422E17CC090000FCFF82
:101388000091630303FB08940EF08894661C08958B
:1013980051432E17D9090000FCFF0091630304FB99
:1013A80008940EF08894661C089551442E17E60997
:1013B8000000FCFF0091630305FB08940EF088947D
:1013C800661C089551452E17F3090000FCFF009193
:1013D800630306FB08940EF08894661C0895514632
:1013E8002E17000A0000FCFF0091630307FB089416
:1013F8000EF08894661C08952E5338170F0A0000C3
:10140800FCFF6694E89408F468940091610300F97D
:101418000093610308952E5339171E0A0000FCFF3C
:101428006694E89408F468940091610301F90093C4
:10143800610308952E5341172D0A0000FCFF66949E
:10144800E89408F468940091610302F90093610339
:1014580008952E5342173C0A0000FCFF6694E89456
:1014680008F468940091610303F9009361030895F7
:101478002E5343174B0A0000FCFF6694E89408F4C7
:1014880068940091610304F90093610308952E5351
:1014980044175A0A0000FCFF6694E89408F468941C
:1014A8000091610305F90093610308952E534517D0
:1014B800690A0000FCFF6694E89408F468940091B7
:1014C800610306F90093610308952E534617780ABD
:1014D8000000FCFF6694E89408F4689400916103A6
:1014E80007F90093610308952E523817870A000000
:1014F800FCFF6694E89408F468940091620300F98C
:101508000093620308952E523917960A0000FCFFD3
:101518006694E89408F468940091620301F90093D2
:10152800620308952E524117A50A0000FCFF669435
:10153800E89408F468940091620302F90093620346
:1015480008952E524217B40A0000FCFF6694E894EE
:1015580008F468940091620303F900936203089504
:101568002E524317C30A0000FCFF6694E89408F45F
:1015780068940091620304F90093620308952E525F
:101588004417D20A0000FCFF6694E89408F46894B3
:101598000091620305F90093620308952E524517DE
:1015A800E10A0000FCFF6694E89408F4689400914E
:1015B800620306F90093620308952E524617F00A53
:1015C8000000FCFF6694E89408F4689400916203B4
:1015D80007F90093620308955451302E0017FE0A4C
:1015E8000000FBFF0091320300FB08940EF0889482
:1015F800661C08955451312E00170C0B0000FBFF98
:101608000091320304FB08940EF08894661C089538
:101618005451322E00171A0B0000FBFF00913303C0
:1016280000FB08940EF08894661C08955451332EDC
:101638000017280B0000FBFF0091330304FB0894FC
:101648000EF08894661C08955451342E0017360BFA
:101658000000FBFF0091340300FB08940EF088940F
:10166800661C08955451352E0017440B0000FBFFEB
:101678000091340304FB08940EF08894661C0895C6
:101688005451362E0017520B0000FBFF0091350312
:1016980000FB08940EF08894661C08955451372E68
:1016A8000017600B0000FBFF0091350304FB089452
:1016B8000EF08894661C08955451382E00176E0B4E
:1016C8000000FBFF0091360300FB08940EF088949D
:1016D800661C08955451392E00177C0B0000FBFF3F
:1016E8000091360304FB08940EF08894661C089554
:1016F8005451412E00178A0B0000FBFF009137035D
:1017080000FB08940EF08894661C08955451422EEC
:101718000017980B0000FBFF0091370304FB0894A7
:101728000EF08894661C08955451432E0017A60B9A
:101738000000FBFF0091380300FB08940EF088942A
:10174800661C08955451442E0017B40B0000FBFF8B
:101758000091380304FB08940EF08894661C0895E1
:101768005451452E0017C20B0000FBFF00913903AE
:1017780000FB08940EF08894661C08955451462E78
:101788000017D00B0000FBFF0091390304FB0894FD
:101798000EF08894661C08952E5452300017E10B01
:1017A8000000FBFF669408F0089500913203E89466
:1017B80000F902F90093320308952E5452310017AC
:1017C800F20B0000FBFF669408F0089500913203C5
:1017D800E89404F906F90093320308952E5452321E
:1017E8000017030C0000FBFF669408F008950091B1
:1017F8003303E89400F902F90093330308952E5453
:1018080052330017140C0000FBFF669408F008958B
:1018180000913303E89404F906F90093330308951B
:101828002E5452340017250C0000FBFF669408F074
:10183800089500913403E89400F902F90093340301
:1018480008952E5452350017360C0000FBFF66949D
:1018580008F0089500913403E89404F906F9009318
:10186800340308952E5452360017470C0000FBFF2E
:10187800669408F0089500913503E89400F902F998
:101888000093350308952E5452370017580C000062
:10189800FBFF669408F0089500913503E89404F975
:1018A80006F90093350308952E5452380017690C31
:1018B8000000FBFF669408F0089500913603E89451
:1018C80000F902F90093360308952E54523900178F
:1018D8007A0C0000FBFF669408F008950091360327
:1018E800E89404F906F90093360308952E545241FA
:1018F80000178B0C0000FBFF669408F00895009118
:101908003703E89400F902F90093370308952E5439
:10191800524200179C0C0000FBFF669408F00895E3
:1019280000913703E89404F906F900933703089502
:101938002E5452430017AD0C0000FBFF669408F0CC
:10194800089500913803E89400F902F900933803E8
:1019580008952E5452440017BE0C0000FBFF6694F5
:1019680008F0089500913803E89404F906F9009303
:10197800380308952E5452450017CF0C0000FBFF82
:10198800669408F0089500913903E89400F902F983
:101998000093390308952E5452460017E00C0000B6
:1019A800FBFF669408F0089500913903E89404F960
:1019B80006F90093390308952E544B300017FB0C99
:1019C8000000FBFF669490F400910003002371F07F
:1019D80009E1009322030091000300931203009190
:1019E8003203689400F902F90093320308952E54E3
:1019F8004B310017160D0000FBFF669490F4009120
:101A08000103002371F009E100932303009101030E
:101A18000093130300913203689404F906F90093C4
:101A2800320308952E544B320017310D0000FBFF8E
:101A3800669490F400910203002371F009E1009389
:101A48002403009102030093140300913303689464
:101A580000F902F90093330308952E544B3300170D
:101A68004C0D0000FBFF669490F4009103030023E3
:101A780071F009E100932503009103030093150316
:101A880000913303689404F906F900933303089529
:101A98002E544B340017670D0000FBFF669490F43A
:101AA80000910403002371F00AE0009326030091DB
:101AB80004030093160300913403689400F902F9B3
:101AC8000093340308952E544B350017820D0000FF
:101AD800FBFF669490F400910503002371F00AE07F
:101AE8000093270300910503009317030091340323
:101AF800689404F906F90093340308952E544B367C
:101B080000179D0D0000FBFF669490F400910603FA
:101B1800002371F00AE00093280300910603009364
:101B2800180300913503689400F902F9009335030E
:101B380008952E544B370017B80D0000FBFF66942C
:101B480090F400910703002371F00AE00093290341
:101B5800009107030093190300913503689404F971
:101B680006F90093350308952E544B380017D30D0A
:101B78000000FBFF669490F400910803002371F0C5
:101B88000AE000932A030091080300931A030091C6
:101B98003603689400F902F90093360308952E5429
:101BA8004B390017EE0D0000FBFF669490F400918E
:101BB8000903002371F00AE000932B030091090345
:101BC80000931B0300913603689404F906F9009307
:101BD800360308952E544B410017090E0000FBFFF1
:101BE800669490F400910A03002371F00AE00093D0
:101BF8002C0300910A0300931C0300913703689497
:101C080000F902F90093370308952E544B42001748
:101C1800240E0000FBFF669490F400910B03002350
:101C280071F00AE000932D0300910B0300931D034C
:101C380000913703689404F906F90093370308956F
:101C48002E544B4300173F0E0000FBFF669490F4A0
:101C580000910C03002371F004E600932E03009119
:101C68000C0300931E0300913803689400F902F9ED
:101C78000093380308952E544B4400175A0E000061
:101C8800FBFF669490F400910D03002371F004E6C5
:101C980000932F0300910D0300931F030091380355
:101CA800689404F906F90093380308952E544B45B7
:101CB8000017750E0000FBFF669490F400910E0368
:101CC800002371F004E60093300300910E030093A3
:101CD800200300913903689400F902F9009339034D
:101CE80008952E544B460017900E0000FBFF669493
:101CF80090F400910F03002371F006E9009331037B
:101D080000910F030093210300913903689404F9AB
:101D180006F90093390308954C4454300017A20E75
:101D28000000FBFF87FF09C08F7710914F031093C6
:101D38000003B1E0AFEF0E948C1A08954C4454316F
:101D48000017B40E0000FBFF87FF09C08F771091C2
:101D58004F0310930103B2E0A0E00E948C1A08958B
:101D68004C4454320017C60E0000FBFF87FF09C021
:101D78008F7710914F0310930203B2E0A1E00E9405
:101D88008C1A08954C4454330017D80E0000FBFFFA
:101D980087FF09C08F7710914F0310930303B2E0B8
:101DA800A2E00E948C1A08954C4454340017EA0E9D
:101DB8000000FBFF87FF09C08F7710914F03109336
:101DC8000403B2E0A3E00E948C1A08954C445435F1
:101DD8000017FC0E0000FBFF87FF09C08F771091EA
:101DE8004F0310930503B2E0A4E00E948C1A0895F3
:101DF8004C44543600170E0F0000FBFF87FF09C044
:101E08008F7710914F0310930603B2E0A5E00E946C
:101E18008C1A08954C4454370017200F0000FBFF1C
:101E280087FF09C08F7710914F0310930703B2E023
:101E3800A6E00E948C1A08954C4454380017320FBB
:101E48000000FBFF87FF09C08F7710914F031093A5
:101E58000803B2E0A7E00E948C1A08954C44543954
:101E68000017440F0000FBFF87FF09C08F77109110
:101E78004F0310930903B2E0A8E00E948C1A08955A
:101E88004C4454410017560F0000FBFF87FF09C060
:101E98008F7710914F0310930A03B2E0A9E00E94D4
:101EA8008C1A08954C4454420017680F0000FBFF39
:101EB80087FF09C08F7710914F0310930B03B2E08F
:101EC800AAE00E948C1A08954C44544300177A0FD4
:101ED8000000FBFF87FF09C08F7710914F03109315
:101EE8000C03B2E0ABE00E948C1A08954C445444B1
:101EF80000178C0F0000FBFF87FF09C08F77109138
:101F08004F0310930D03B2E0ACE00E948C1A0895C1
:101F18004C44544500179E0F0000FBFF87FF09C083
:101F28008F7710914F0310930E03B2E0ADE00E943B
:101F38008C1A08954C4454460017B00F0000FBFF5C
:101F480087FF09C08F7710914F0310930F03B2E0FA
:101F5800AEE00E948C1A0895462E0017B80F0000B4
:101F6800FCFF0FEF602E08955A2E0017BF0F0000D8
:101F7800FCFF6624089550504117CE0F0000FCFF67
:101F880083FF0895877F0E94201A06392091510304
:101F980058D0089550505517DD0F0000FCFF83FFFF
:101FA8000895877F0E94201A06392091550349D049
:101FB800089550505617EC0F0000FCFF83FF08955A
:101FC800877F0E94201A0639209156033AD0089537
:101FD80050505917FB0F0000FCFF83FF0895877FBF
:101FE8000E94201A0639209153032BD008954E4F92
:101FF800501701100000FCFF089546494C4C00178B
:1020080019100100FBFF60E0D1E0C0E0D093440369
:10201800C0934503B1E0A0E0F0E1E0E0B7D76A95EE
:10202800E9F70E949202FDD60895504253173110E5
:102038000000FCFF83FF0895877F0E94201A06088E
:10204800262D68E0221F0E94BD1911E308F010E355
:102058000E94AB196A95B1F708954B455917471077
:102068000000FCFF0E949B19112309F408951F32F8
:1020780009F008950E942C19F89408E00EBF0FEF9C
:102088000DBF7894F4C552554E1766100100000034
:102098004CD6FAE2E6EFF695E79578D70E94E51870
:1020A800FAE3ECEF0E94D319F89408E00EBF0FEFA3
:1020B8000DBF7894B42DA52DFD91ED914B2E5A2E80
:1020C8000995F8CF455830176F100100000023D04C
:1020D8000E942518E3CF3F177F10010000000E94DF
:1020E800EB18F6E3E8EE0E94D3190E942C190E941F
:1020F800EB1897D608952F178A1001000000F8945E
:1021080008E00EBF0FEF0DBF7894B1C555463017E4
:102118009B10010000000E9492020E94201A1802DF
:102128000E94EB19FBE3E4E30E94D3190895494E9A
:102138005317BF1001000000F8D5B0914403A091D7
:102148004503D2E0CFE5CA1BDB0BD695C7952C2EED
:10215800DD91CD91FD91EC910FEFA00F0FEFB01F26
:10216800DD93CD93DF2FCE2F2A94A1F7F0E1E0E0A5
:102178000DD757D6089544454C17DF1001000000CD
:10218800D4D5B0914403A0914503D2E0CFE5CA1B52
:10219800DB0BD695C7952C2EDB2FCA2F2296F991EB
:1021A800E991FD93ED932A94D1F7F0E1E0E0FD93F6
:1021B800ED9337D6089556455217EC100100FCFFF1
:1021C8000E94E518F0E0E8E60E94D31970680895C7
:1021D80053544F5245170F110100FBFF0E94E51899
:1021E800FBE3E2E80E94D3190FEF01BD02BD02E054
:1021F800B02F00E1A02FF1E0E0E001910E94751AF4
:1022080011E0A11B1127B10BBB23B9F7AA23A9F72A
:102218000E942C1908954C4F414400172D110100BC
:10222800FBFF0FEF01BD02BD02E0B02F00E1A02FC0
:10223800F1E0E0E00E94821A019311E0A11B11274E
:10224800B10BBB23B9F7AA23A9F70E949202E9D5DB
:1022580008954C445417A2110100FCFFB2D7FBE3C8
:10226800E4EA0E94D31900914A030F9300270093D0
:102278004A030E94EB180E9401160E941E160027AE
:1022880000934A030E94BD15A1D40E9407190E9419
:10229800D51775FF1BC00E94A4191B35B1F70E9402
:1022A800A419133421F499D452D490D4EECF143411
:1022B80021F493D455D48AD4E8CF113409F4E5CF66
:1022C800123409F4E2CF0E94A419DFCFB3E0AAE3E5
:1022D8001C910E9473181A3521F4B5D44AD476D4C7
:1022E800D4CF0E9412181123D1F00E947A1873FFDC
:1022F8000DC0777F77FF03C07F770E941E160E946C
:102308004D186ED444D423D461D4BFCF0E94201A70
:10231800182DFBE3E6E50E94D3197068B6CF0E943A
:10232800201A16060E94EB190F9100934A030E9487
:10233800EB180E9415170E94111908952E434E5448
:102348000017C9110000FBFF669440F08F7B11272E
:10235800109310031AE010931103089510911003BD
:1023680009F409D086FF08958F7B10911003139507
:10237800109310038068112710934E0310911003D7
:1023880010934F030E944D1808952E54473000179C
:10239800E7110000FBFF669430F0009164030E7FA4
:1023A8000093640308950091640300FD089500916B
:1023B80064030160009364030091650311E0012741
:1023C8000093650308952E54473100170512000045
:1023D800FBFF669430F0009164030D7F0093640363
:1023E80008950091640301FD08950091640302605B
:1023F800009364030091650312E0012700936503CD
:1024080008952E544732001723120000FBFF6694EC
:1024180030F0009164030B7F0093640308950091EA
:10242800640302FD0895009164030460009364034B
:102438000091650314E001270093650308952E5465
:102448004733001741120000FBFF669430F00091FB
:102458006403077F0093640308950091640303FDF8
:102468000895009164030860009364030091650374
:1024780018E001270093650308952E544734001788
:102488005F120000FBFF669430F0009164030F7E3A
:102498000093640308950091640304FD0895009176
:1024A80064030061009364030091650310E1012750
:1024B8000093650308952E54473500177D120000D8
:1024C800FBFF669430F0009164030F7D0093640372
:1024D80008950091640305FD089500916403006266
:1024E800009364030091650310E2012700936503DC
:1024F80008952E54473600179B120000FBFF669480
:1025080030F0009164030F7B0093640308950091F9
:10251800640306FD08950091640300640093640356
:102528000091650310E401270093650308952E5474
:1025380047370017B9120000FBFF669430F000918E
:1025480064030F770093640308950091640307FD03
:102558000895009164030068009364030091650383
:1025680010E80127009365030895544751302E174A
:10257800C7120000FBFF0091650300FB08940EF0F2
:102588008894661C0895544751312E17D5120000BF
:10259800FBFF0091650301FB08940EF08894661C0C
:1025A8000895544751322E17E3120000FBFF0091A3
:1025B800650302FB08940EF08894661C089554473E
:1025C80051332E17F1120000FBFF0091650303FB46
:1025D80008940EF08894661C0895544751342E17B9
:1025E800FF120000FBFF0091650304FB08940EF046
:1025F8008894661C0895544751352E170D13000012
:10260800FBFF0091650305FB08940EF08894661C97
:102618000895544751362E171B130000FBFF0091F5
:10262800650306FB08940EF08894661C08955447C9
:1026380051372E1729130000FBFF0091650307FB94
:1026480008940EF08894661C08955245414400177A
:10265800A6130100FBFF0E94EB180E94201A09191B
:10266800F8E2E6EA0E94D3190E94E1180E947A1360
:102678001F3219F40E949B1334C01A33B9F70E9411
:102688008113E0F4CC23F9F04C2F3C2F0E947F13E8
:10269800A8F4DE013D0F3C0F0E94811378F4CC238F
:1026A80091F40E94811350F4CD933C0F4A95C9F7D9
:1026B8000E94811318F43C0F3323C1F20E949B132C
:1026C800F8E2EEED04C00E949B13F8E2E8EC0E94E9
:1026D800D319F8E2EEEE0E94D3190E94A4191D3016
:1026E800E1F7A5D59AD517DD9CD308950E949B19CB
:1026F8001123E1F3089564E001C062E0DD27CC27EF
:102708000E947A130E94D21840F41F930E949213D9
:102718001F91C12B6A95A1F7089408954F9344E03F
:102728008894CC1FDD1F4A95E1F74F910895877F64
:1027380083FFFDCF877F0E949B19112311F083FF30
:10274800FACF089557524954451781140100FBFFE9
:102758000E94EB180E94201A0911F8E2ECE40E948A
:10276800D3190E94E118F8E2ECE70E94D3190E94FD
:10277800201A0B010E94A4191D3019F01F32D1F73D
:1027880034C0B1E0A0E0D2E0C0E1889444E0222760
:10279800D795C79527954A95D9F72295DD2311F442
:1027A800CC2331F00E94FE130E940F142197D1F719
:1027B800222341F01AE30E94AB19422F0E9402140F
:1027C8000E940F141AE30E94AB1943E011270E94DC
:1027D80075194A95D9F711E00E94751931E00E94E0
:1027E80017140E94A4191D30E1F721D50E94111970
:1027F80018D308951AE30E94AB1940E1142F0E94E0
:1028080075193327340F3A0F3B0F0E941F141127F5
:102818000E94751908951D911F930E9475191F91A3
:10282800310F4A95C1F730953395132F0E947519CA
:102838000E94B31908951B2F0E9475191A2F0E9420
:102848007519089546696C65207772697465202E3C
:102858002E2E2E202743522720746F2073656E6416
:10286800202E2E2E2E20272F2720746F2061626F96
:1028780072741A002A2A2A2053746172742F656EA2
:102888006420686F7374207472616E736665722059
:1028980070726F636564757265202A2A2A1A5265F8
:1028A8006164696E672066696C65202E2E2E2E2E57
:1028B8002E20272F2720746F2061626F72741A00F0
:1028C80046696C65207265616420636F6D706C6524
:1028D800746564202D1A52656164206572726F7286
:1028E80021202D201A00202743522720666F7220AE
:1028F8006D656E75202D2D3E1A004C4953540017F6
:1029080076150100FBFF0E94DD190E94201A0311B1
:10291800FAE2E2E20E94D3190E94A4191D3019F0CC
:102928001F32D1F70CC0FAE2EEE40E94D3190E94DC
:1029380092020CD050D00E94A4191D30E1F70E94D9
:10294800920275D40E9411196CD2089548E04F93F1
:1029580038E03F9314D03F913A9539F009EE109141
:102968004303100F10934303F4CFF9D400914303AA
:102978000395009343034F914A9549F708950E94A0
:10298800C01924E02F93D0914203C0914303D09300
:102998004603C093470312D00E94BB190E94C01976
:1029A8002F912A9539F0C091430308E0C00FC093D6
:1029B8004303E8CF1AE00E94AB19089517D224D236
:1029C8005DD377D218F488D2A5D20895FBE3ECE75B
:1029D8000E94D3190895FAE2EEE50E94D319B3E0F4
:1029E800A0E068E00ED00E94B3190E94C019FAE274
:1029F800EEEA0E94D31968E004D01AE00E94AB19ED
:102A080008951D91C12FDD270E94B4180E946118F6
:102A18000E94C0196A95A9F708956C697374202EED
:102A28002E2E2E202743522720746F2073656E6444
:102A3800202E2E2E2E20272F2720746F2061626FC4
:102A480072740D0A0A1A554630206C697374696EDF
:102A5800673A0D0A1A0054696D65722073657474BB
:102A6800696E67733A0D0A0954302020202020200F
:102A780054312020202020205432202020202020C3
:102A880054332020202020205434202020202020AF
:102A9800543520202020202054362020202020209B
:102AA80054370D0A091A5438202020202020543980
:102AB8002020202020205441202020202020544263
:102AC800202020202020544320202020202054444F
:102AD800202020202020544520202020202054463B
:102AE8000D0A091A454E44179A150000FCFF01E02B
:102AF800402E00E0502E1091600300915E03102BD1
:102B08001093600300915F03009501230093600315
:102B18001091630300916103102B109363030091DC
:102B28006203009501230093630308951A0018991E
:102B38000C94AA150FEF01BD02BDE0D40F3F31F090
:102B48000E9415110E948F100C9452100895009144
:102B58004A030395003109F4002700934A030895B6
:102B680000914A030A950F3F09F40FE000934A03C6
:102B7800089560E1002700934A036F9308D0E7DFC8
:102B88006F916A95D1F7002700934A030895B3E03F
:102B9800A0E0CFE0DBE0222410914A03112361F08A
:102BA80007E0C00F11962394022D083019F4CFE0E6
:102BB80005E0D00F1A95A1F70E94371A1D91C12F71
:102BC800DD270E94B4180E94611808950E94FF1919
:102BD8000E94CB150E94FA1908950E94FA19F8CF9D
:102BE800B3E0A0E000914A03002319F011960A957A
:102BF800E9F7009150030D9308950E94201A090FD8
:102C0800FBE3E0ED0E94D3190E94201A0A0FFCE3AF
:102C1800E8E30E94D3190E94201A0E0FFCE3E4E0B7
:102C28000E94D3190E94201A0F0FFCE3E8E30E94C8
:102C3800D31908950E94E118FBE3E4EA0E94D3192E
:102C48000E94EB190895B3E0A0E022E100270D935C
:102C58002A95E9F7089508E00EBF0FEF0DBF0E940F
:102C680066190E9450020E9483020E949B15DFD2BF
:102C780052DAD7D0DFD90DD2C6D293D175FF29C089
:102C88005FD31B3599F45CD3123411F476D0F4CFAA
:102C9800113411F483D0F0CF133419F461D0C1D0BA
:102CA800EBCF143419F44FD0BCD0E6CF183411F45C
:102CB80084D0E2CF113319F443D37FD0DDCF123360
:102CC80019F43ED339DAD8CF133319F439D358DA93
:102CD800D3CF77FF02C07F77A0D2A0D1112361F2B2
:102CE80034D250F41C91112311F02FD228F4FED1C4
:102CF80073FF15C0777FBECF022D063080F410D148
:102D080070F0FF93EF930995EF91FF910ED000912A
:102D18004803013009F4AECF39D12FD0ABCF51D20F
:102D2800FBE3E6E53CD37068A7CF04D05FD06CD056
:102D380001D0089500914B0310914A0300934A0370
:102D480010934B03089510914303103029F000EEBF
:102D5800100F10934303089510EE10934303089542
:102D680010914303103E29F000E2100F1093430323
:102D78000895112710934303089563D000914B03DE
:102D8800039500934B03003239F4002700934B035B
:102D98004DD0E6DF46D0089549D0089552D000912D
:102DA8004B030A9500934B030F3F29F40FE100935F
:102DB8004B03C9DF36D03AD0089543D01091500361
:102DC80020E26DD220934B03112329F01770C5E040
:102DD800110FCA95E9F7C12F00914303102721F07D
:102DE800C09343031ED0089521D00895D091420383
:102DF800C091430300914A03C00F0027D01FD0930E
:102E08004603C09347030895D0914603C0914703F2
:102E1800CC0FDD1FC50DD41DD0934403C0934503CB
:102E280008950E9429170E941A1708950E94FF19F1
:102E38000E949E160E943B170E94FA190E949E1635
:102E480008950E94FA19F4CF089520E2002700930C
:102E58004A032F930CD000914A03039500934A0329
:102E68002F912A95B1F7002700934A0308950DD0B2
:102E7800BDDFCADF03D11DD018F42ED042D008958B
:102E8800FBE3ECE70E94D3190895C8E0D9E010915C
:102E98004A031770D10F10914A03187139F016952B
:102EA8001695169503E1C00F1A95E9F70E94371A8F
:102EB8000895D0914403C0914503F991E99104E044
:102EC800E01B00E0F00BEE0FFF1FE16004910731FB
:102ED800089409F088940895D0914403C09145035B
:102EE800F991E99101E0E01B00E0F00BEE0FFF1F04
:102EF80025911491F695E795E20FF11FEE0FFF1F4C
:102F08000895FF93EF93FBE3EAE449D2EF91FF9131
:102F180001D008951591173111F019D2FBCF0895FA
:102F2800F5E0ECE3B3E0AAE3222D1591312E103041
:102F380061F0173169F00AE1102711F40894089537
:102F48001D910E947318132561F015911731E9F747
:102F580015911F9315911F93FF91EF91EE0FFF1F8E
:102F6800E1CF2A9511F71491103009F43196159193
:102F7800173159F73296B3E0A8E415911D931591CE
:102F88001D933296F695E79588940895D091440359
:102F9800C0914503F993E993D0934403C093450343
:102FA80008950E9419180E94A4191D3021F4B3E055
:102FB800AAE370610895183141F4222D222389F380
:102FC8000E94CC192A95E1F7ECCF183051F4222D44
:102FD800222349F32A95222E0E94CC1900E00E9351
:102FE800E2CF193039F437E010E20E9408183A9518
:102FF800E1F7D9CF1B3111F47062089538D076FF0C
:1030080001C0089501D0CFCF222D283009F40895AA
:103018002395222E1D930E94AB1908951D911030FF
:1030280011F488940895089408950027222428E02C
:10303800B3E0AAE30D932A95E9F7B3E0AAE37F7C0E
:10304800089524E5B3E0A2E100270D932A95E9F756
:1030580008950027602E00935103009355030093B1
:10306800560300935303D02EE02EF02E089570647B
:10307800103218F01F3708F47F7B0895D09146036B
:10308800C09147030E94B4180E9461180E94BB199E
:103098000895D2D10627B3E0AEE4DD91CC910E9429
:1030A800B4180E94581808951F2D13D01E2D0E9481
:1030B80065181D2D0E94651808951E2D0E946D1813
:1030C800F8CF312E12950E946D18132D0E946D189D
:1030D80008951F7000E3100F0E94AB190895113670
:1030E80020F01B3710F4889410420895777F622DE2
:1030F800663068F40E948C1850F4B3E0AEE4DD93B7
:10310800CD93CC93DD2311F00FEF0C9378600895E5
:10311800DD27CC27B3E0AAE31D910E94A91868F423
:10312800312E0E94381968F0332D22270E944A193F
:1031380040F06A9589F7089408958894DD27CC278C
:1031480008950894DFEFCFEF0895312E0E94731889
:10315800105318F01A3008F408958894132D089520
:103168003FEFF32EF394C051D742E0F7C05FD84D3C
:1031780020EF205FC85ED340E0F7C851DC4FE32E54
:10318800E394C456D040E0F7CC59E22A20EF205F00
:10319800CA50E8F7C65FD22EDC2A0895312E9FDF89
:1031A800105340F01A3028F017501A3018F0103128
:1031B80008F40895132D889408950E94201A18027F
:1031C80003C00E94201A18160E94EB1908950E9445
:1031D800201A08010E94F5180F000E94201A080101
:1031E8000895FF91EF91EE0FFF1FEE7F2591319625
:1031F800F695E795EF93FF930E94EB190E94E61965
:103208002A95D1F708950E94201A16060E94EB19F4
:10321800FBE3E4E70E94D31908950E94201A1802DC
:103228000E94EB19FBE3E4E30E94D31908950E947E
:10323800DD190E94201A0101F5E3E2E20E94D31988
:103248000E94201A1701F6E3E6E90E94D3190895AF
:103258000E94201A183AFBE3EEE10E94D3190E945B
:10326800A4190E94E51808950E94461950F0DF93AA
:103278002F91CF933F9106D020F004D010F00E94F8
:103288004A1908958894CC1FDD1F0895C30FD21FD3
:1032980008950F930FEFA00FB01F0F9108953F935C
:1032A8006F93331B69E0111F6A9521F4232F6F91E7
:1032B8003F910895331F321B18F4320F8894F3CFCF
:1032C8000894F1CFF894A89504B7007004BF009152
:1032D800600008610093600000E00093600078944B
:1032E80008951F93129501D01F911F7060E3160F68
:1032F8001A3310F067E0160F0E94AB19089524E600
:103308000E945319112311F00E9497191AE01F9374
:103318002F931F912F910E9453190E9497191F9361
:103328002F931F912F9110630E94AB19089500915C
:10333800C00007FF03C01091C60008951127089523
:103348000091C00007FFFCCF1091C60008950091BE
:10335800C00005FFFCCF1093C600089500D01F934E
:103368001DE00E94AB191AE00E94AB190AC00E9426
:10337800BD191F9310E205C01F9319E002C01F93E7
:1033880017E00E94AB191F9108951F931CE2F9CF13
:103398001F930E94F0190E94EB191F9108951F9323
:1033A80015911A3111F41F9108951030C9F3CFDF28
:1033B800F7CFFF93EF93F4E3E0E90E94D319F4E326
:1033C800EAE91DC0FF93EF93F4E3E8E818C0FF9320
:1033D800EF93F4E3EEE913C0FF93EF93F4E3ECE823
:1033E8000EC0FF93EF93F4E3E2EA09C0FF93EF9373
:1033F800F4E3E8EA04C0FF93EF93F4E3ECEACFDFE9
:10340800EF91FF910895FF93EF93F4E3E2EBF7CF89
:10341800FF93EF93F4E3E6EBF2CFFF93EF93F4E33C
:10342800E8EBEDCFFF93EF93F4E3E0ECE8CFFF9305
:10343800EF93F4E3E4ECE3CF0E94071AFF91EF91D6
:103448008894EE1FFF1F15910E9483190E940C1A81
:1034580015910E9483190E94111A8894F795E7958F
:10346800EF93FF9308950E94071A1D2F0E94831956
:103478000E940C1A1C2F0E9483190E94111A089589
:103488001B5B421A1B5B441A1B5B481A1B5B304AC6
:103498001A001B5B4A1A1B5B4B1A1B5B316D1A0027
:1034A8001B5B6D1A1B5B376D1A001B5B1A003B1AFE
:1034B800481A1B5B314D1A001B371A001B381A00BB
:1034C800F999FECFD2BDC1BD00BDF894FA9AF99A18
:1034D80078940895F999FECFD2BDC1BDF89A00B588
:1034E8000895F999FECFC1B5D2B52196C1BDD2BD17
:1034F80000BDF894FA9AF99A78940895F999FECF4C
:10350800C1B5D2B52196C1BDD2BDF89A00B508950E
:10351800A1BDB2BD012FE5DF089520202020202085
:1035280020202020202020203C3C3C3C20206D33C3
:1035380032382D7554696C652050726F6772616DF1
:103548006D61626C65204C6F67696320436F6E74B0
:10355800726F6C6C6572203E3E3E3E0D0A002D2D4A
:103568002D2D2D2D2D2D2D2D2D2D2D2D2D2D2D2D83
:103578002D2D2D2D2D2D2D2D2D2D2D2D2D2D2D2D73
:103588002D2D2D2D2D2D2D2D2D2D2D2D2D2D2D2D63
:103598002D2D2D2D2D2D2D2D2D2D2D2D2D2D2D2D53
:1035A8002D2D2D2D2D2D2D2D2D2D2D2D2D2D0D0A86
:1035B8002020202020202020202020426974205311
:1035C8007461636B202020202020202020202020D0
:1035D80020202020202020202020202020202020E3
:1035E800202020202020202020202020506F7274AE
:1035F80020427974650D0A002020202020202020F8
:103608003720362035203420332032203120302016
:10361800202020202020202020202020202044613D
:1036280074612020202020202020202020202020FD
:1036380020372036203520342033203220312030E6
:103648000D0A20202020202020203D3D3D3D3D3DED
:103658003D3D3D3D3D3D3D3D3D202020202020205D
:1036680020202020202020203D3D3D3D3D202020C1
:1036780020202020202020202020203D3D3D3D3DB1
:103688003D3D3D3D3D3D3D3D3D3D0D0A0A002D2D55
:103698002D2D2D2D2D2D2D2D2D2D2D2D2D2D2D2D52
:1036A8002D2D2D2D2D2D2D2D2D2D2D2D2D2D2D2D42
:1036B8002D2D2D2D2D2D2D2D2D2D2D2D2D2D2D2D32
:1036C8002D2D2D2D2D2D2D2D2D2D2D2D2D2D2D2D22
:1036D8002D2D2D2D2D2D2D2D2D2D2D2D2D2D1A0052
:1036E80020204C6F6769632020204269742053743E
:1036F80061636B2020202020202020202020492FBB
:103708004F202D20436F6D6D616E64732020202043
:1037180020202020202047656E6572616C20436F51
:103728006D6D616E64732020202054696D6572731D
:103738000D0A20202D2D2D2D2D2020202D2D2D2D35
:103748002D2D2D2D2D202020202D2D2D2D2D2D2DD5
:103758002D2D2D2D2D2D2D2D2D2D2D2D2D2D2D2D91
:103768002D2D2D202020202D2D2D2D2D2D2D2D2DB5
:103778002D2D2D2D2D2D2D2D2D2020202D2D2D2D98
:103788002D2D0D0A202020616E6420202020206429
:1037980075702032647570202020202020496E3AF0
:1037A800202041692E20414C692E204154692E2049
:1037B8004144692E2020202020202066696C6C203E
:1037C8002065783020202072756E2020202020541B
:1037D800516D2E0D0A002020206F722020202020FD
:1037E800202064726F7020202020202020204F7518
:1037F800743A202E596E20202020202020202020BE
:1038080020202020202020202020202020696E73C6
:103818002020206B6579202020656E6420202020E0
:103828002E546B6D0D0A202020786F7220202020E6
:103838002020737761702020202020202056697274
:10384800743A2020556E2E2C202E556E2C20566E44
:103858002E2C202E566E2020202020202064656CDF
:10386800202020202F202020207665722020202054
:103878002E54526D0D0A20202021202121202020A5
:103888002020662E207A2E202020202869203D2006
:10389800302E2E352C206E203D20302E2E372C2019
:1038A8006D203D20302E2E662920202020203F200C
:1038B80020206C6F616420202073746F7265202053
:1038C800206C64740D0A2020206E6F702020202048
:1038D8002020202020202020202E202020202020D2
:1038E80020202020202020202020202020202020D0
:1038F8002020202020202020202020206C69737484
:103908002020726561642020207772697465202008
:10391800204C44546D0D0A0A20202D2D2D2D2D2DBF
:103928002D204279746520436F6D6D616E6473203C
:103938002D2D2D2D2D2D2D20202020202D2D2046E4
:103948006C69702F466C6F70202D2D202020202D43
:103958002D2D20436C6F636B2050756C736573203D
:103968002D2D2D0D0A0020202050412E20202E50D4
:103978005920202050552E20202E505520205056BA
:103988002E202E505620202020202E536D20202E11
:10399800526D202020516D2E2020202020636C6B3A
:1039A800612E202020636C6B622E2020636C6B6379
:1039B8002E0D0A0020202050504120205042532034
:1039C800202050505520205050562020505059202B
:1039D8002020202020202020202D2D20436F756EB0
:1039E800746572202D2D2020202020323030206D4B
:1039F800732020363030206D7320312E3820730D1F
:103A08000A00202047726F756E6420443820746F56
:103A180020656E61626C65204175746F73746172A4
:103A280074202020202020202020202E434E5420A7
:103A38002020202020202054696D6572733A20547C
:103A4800302E2E54332028302E312073290D0A00B1
:103A5800202047726F756E6420443920746F206986
:103A68006E76657274206F7574707574732020207B
:103A780020202020202D2D20546F67676C65202D75
:103A88002D20202020202020202020202054342ECB
:103A98002E54622028312073290D0A002020446109
:103AA80074653A20323032352F30332F3137205673
:103AB800657220312E302020202020202020202038
:103AC800202E54476E2020205447516E2E2020204F
:103AD8002054632E2E546520286D696E292C20549D
:103AE8006620283130206D696E290D0A1A002020C1
:103AF800203F001A2A2A2A2052756E6E696E6720A6
:103B0800557365722046696C652050726F677261E3
:103B18006D202A2A2A1A2020537472696B65206145
:103B28006E79206B6579202D2D3E201A2A2A2A20AD
:103B3800557365722046696C652030202A2A2A0050
:103B48001A00202020202008080808081A00202031
:103B58002A2A2A20556E7265636F676E697A6564D2
:103B680020496E70757421202A2A2A1A456E7465B8
:103B7800723A201A2E2E2E2E2E1A20202053746FC1
:103B880072696E67205546302C20706C65617365CC
:103B98002077616974202E2E2E201A002A2A2A20C6
:103BA8004C6F61642074696D6572732C205A2063B0
:103BB8006C65617220616C6C2C203C43523E206520
:103BC800786974202A2A2A1A543020202020205468
:103BD800312020202020543220202020205433203F
:103BE800202020205434202020202054352020203C
:103BF80020205436202020202054371A54382020E2
:103C0800202020543920202020205441202020200A
:103C180020544220202020205443202020202054BB
:103C28004420202020205445202020202054461ABB
:103C38003D3D3D3D3D3D3D3D3D3D3D3D3D3D3D3DAC
:103C48003D3D3D3D3D3D3D3D3D3D3D3D3D3D3D3D9C
:103C58003D3D3D3D3D3D3D3D3D3D3D3D3D3D3D3D8C
:063C68003D3D3D3D1A0048
:00000001FF
